{"abi":[{"type":"constructor","inputs":[{"name":"_usdc","type":"address","internalType":"address"},{"name":"_riskManager","type":"address","internalType":"address"},{"name":"_positionManager","type":"address","internalType":"address"},{"name":"_treasuryManager","type":"address","internalType":"address"},{"name":"_keeper","type":"address","internalType":"address"},{"name":"_backendSigner","type":"address","internalType":"address"}],"stateMutability":"nonpayable"},{"type":"function","name":"BACKEND_SIGNER_ROLE","inputs":[],"outputs":[{"name":"","type":"bytes32","internalType":"bytes32"}],"stateMutability":"view"},{"type":"function","name":"DEFAULT_ADMIN_ROLE","inputs":[],"outputs":[{"name":"","type":"bytes32","internalType":"bytes32"}],"stateMutability":"view"},{"type":"function","name":"KEEPER_ROLE","inputs":[],"outputs":[{"name":"","type":"bytes32","internalType":"bytes32"}],"stateMutability":"view"},{"type":"function","name":"ORDER_VALIDITY_PERIOD","inputs":[],"outputs":[{"name":"","type":"uint256","internalType":"uint256"}],"stateMutability":"view"},{"type":"function","name":"PRICE_VALIDITY_WINDOW","inputs":[],"outputs":[{"name":"","type":"uint256","internalType":"uint256"}],"stateMutability":"view"},{"type":"function","name":"cancelOrder","inputs":[{"name":"orderId","type":"uint256","internalType":"uint256"}],"outputs":[],"stateMutability":"nonpayable"},{"type":"function","name":"cancelOrderGasless","inputs":[{"name":"trader","type":"address","internalType":"address"},{"name":"orderId","type":"uint256","internalType":"uint256"},{"name":"nonce","type":"uint256","internalType":"uint256"},{"name":"userSignature","type":"bytes","internalType":"bytes"}],"outputs":[],"stateMutability":"nonpayable"},{"type":"function","name":"cancelledOrders","inputs":[{"name":"","type":"uint256","internalType":"uint256"}],"outputs":[{"name":"","type":"bool","internalType":"bool"}],"stateMutability":"view"},{"type":"function","name":"createLimitCloseOrder","inputs":[{"name":"trader","type":"address","internalType":"address"},{"name":"positionId","type":"uint256","internalType":"uint256"},{"name":"triggerPrice","type":"uint256","internalType":"uint256"},{"name":"nonce","type":"uint256","internalType":"uint256"},{"name":"expiresAt","type":"uint256","internalType":"uint256"},{"name":"userSignature","type":"bytes","internalType":"bytes"}],"outputs":[{"name":"orderId","type":"uint256","internalType":"uint256"}],"stateMutability":"nonpayable"},{"type":"function","name":"createLimitOpenOrder","inputs":[{"name":"trader","type":"address","internalType":"address"},{"name":"symbol","type":"string","internalType":"string"},{"name":"isLong","type":"bool","internalType":"bool"},{"name":"collateral","type":"uint256","internalType":"uint256"},{"name":"leverage","type":"uint256","internalType":"uint256"},{"name":"triggerPrice","type":"uint256","internalType":"uint256"},{"name":"nonce","type":"uint256","internalType":"uint256"},{"name":"expiresAt","type":"uint256","internalType":"uint256"},{"name":"userSignature","type":"bytes","internalType":"bytes"}],"outputs":[{"name":"orderId","type":"uint256","internalType":"uint256"}],"stateMutability":"nonpayable"},{"type":"function","name":"createStopLossOrder","inputs":[{"name":"trader","type":"address","internalType":"address"},{"name":"positionId","type":"uint256","internalType":"uint256"},{"name":"triggerPrice","type":"uint256","internalType":"uint256"},{"name":"nonce","type":"uint256","internalType":"uint256"},{"name":"expiresAt","type":"uint256","internalType":"uint256"},{"name":"userSignature","type":"bytes","internalType":"bytes"}],"outputs":[{"name":"orderId","type":"uint256","internalType":"uint256"}],"stateMutability":"nonpayable"},{"type":"function","name":"executeLimitCloseOrder","inputs":[{"name":"orderId","type":"uint256","internalType":"uint256"},{"name":"signedPrice","type":"tuple","internalType":"struct LimitExecutorV2.SignedPrice","components":[{"name":"symbol","type":"string","internalType":"string"},{"name":"price","type":"uint256","internalType":"uint256"},{"name":"timestamp","type":"uint256","internalType":"uint256"},{"name":"signature","type":"bytes","internalType":"bytes"}]}],"outputs":[],"stateMutability":"nonpayable"},{"type":"function","name":"executeLimitOpenOrder","inputs":[{"name":"orderId","type":"uint256","internalType":"uint256"},{"name":"signedPrice","type":"tuple","internalType":"struct LimitExecutorV2.SignedPrice","components":[{"name":"symbol","type":"string","internalType":"string"},{"name":"price","type":"uint256","internalType":"uint256"},{"name":"timestamp","type":"uint256","internalType":"uint256"},{"name":"signature","type":"bytes","internalType":"bytes"}]}],"outputs":[],"stateMutability":"nonpayable"},{"type":"function","name":"executeStopLossOrder","inputs":[{"name":"orderId","type":"uint256","internalType":"uint256"},{"name":"signedPrice","type":"tuple","internalType":"struct LimitExecutorV2.SignedPrice","components":[{"name":"symbol","type":"string","internalType":"string"},{"name":"price","type":"uint256","internalType":"uint256"},{"name":"timestamp","type":"uint256","internalType":"uint256"},{"name":"signature","type":"bytes","internalType":"bytes"}]}],"outputs":[],"stateMutability":"nonpayable"},{"type":"function","name":"getOrder","inputs":[{"name":"orderId","type":"uint256","internalType":"uint256"}],"outputs":[{"name":"","type":"tuple","internalType":"struct LimitExecutorV2.Order","components":[{"name":"id","type":"uint256","internalType":"uint256"},{"name":"orderType","type":"uint8","internalType":"enum LimitExecutorV2.OrderType"},{"name":"status","type":"uint8","internalType":"enum LimitExecutorV2.OrderStatus"},{"name":"trader","type":"address","internalType":"address"},{"name":"symbol","type":"string","internalType":"string"},{"name":"isLong","type":"bool","internalType":"bool"},{"name":"collateral","type":"uint256","internalType":"uint256"},{"name":"leverage","type":"uint256","internalType":"uint256"},{"name":"triggerPrice","type":"uint256","internalType":"uint256"},{"name":"positionId","type":"uint256","internalType":"uint256"},{"name":"createdAt","type":"uint256","internalType":"uint256"},{"name":"executedAt","type":"uint256","internalType":"uint256"},{"name":"expiresAt","type":"uint256","internalType":"uint256"},{"name":"nonce","type":"uint256","internalType":"uint256"}]}],"stateMutability":"view"},{"type":"function","name":"getRoleAdmin","inputs":[{"name":"role","type":"bytes32","internalType":"bytes32"}],"outputs":[{"name":"","type":"bytes32","internalType":"bytes32"}],"stateMutability":"view"},{"type":"function","name":"getUserCurrentNonce","inputs":[{"name":"user","type":"address","internalType":"address"}],"outputs":[{"name":"","type":"uint256","internalType":"uint256"}],"stateMutability":"view"},{"type":"function","name":"getUserOrders","inputs":[{"name":"user","type":"address","internalType":"address"}],"outputs":[{"name":"","type":"uint256[]","internalType":"uint256[]"}],"stateMutability":"view"},{"type":"function","name":"getUserPendingOrders","inputs":[{"name":"user","type":"address","internalType":"address"}],"outputs":[{"name":"","type":"tuple[]","internalType":"struct LimitExecutorV2.Order[]","components":[{"name":"id","type":"uint256","internalType":"uint256"},{"name":"orderType","type":"uint8","internalType":"enum LimitExecutorV2.OrderType"},{"name":"status","type":"uint8","internalType":"enum LimitExecutorV2.OrderStatus"},{"name":"trader","type":"address","internalType":"address"},{"name":"symbol","type":"string","internalType":"string"},{"name":"isLong","type":"bool","internalType":"bool"},{"name":"collateral","type":"uint256","internalType":"uint256"},{"name":"leverage","type":"uint256","internalType":"uint256"},{"name":"triggerPrice","type":"uint256","internalType":"uint256"},{"name":"positionId","type":"uint256","internalType":"uint256"},{"name":"createdAt","type":"uint256","internalType":"uint256"},{"name":"executedAt","type":"uint256","internalType":"uint256"},{"name":"expiresAt","type":"uint256","internalType":"uint256"},{"name":"nonce","type":"uint256","internalType":"uint256"}]}],"stateMutability":"view"},{"type":"function","name":"grantRole","inputs":[{"name":"role","type":"bytes32","internalType":"bytes32"},{"name":"account","type":"address","internalType":"address"}],"outputs":[],"stateMutability":"nonpayable"},{"type":"function","name":"hasRole","inputs":[{"name":"role","type":"bytes32","internalType":"bytes32"},{"name":"account","type":"address","internalType":"address"}],"outputs":[{"name":"","type":"bool","internalType":"bool"}],"stateMutability":"view"},{"type":"function","name":"nextOrderId","inputs":[],"outputs":[{"name":"","type":"uint256","internalType":"uint256"}],"stateMutability":"view"},{"type":"function","name":"orders","inputs":[{"name":"","type":"uint256","internalType":"uint256"}],"outputs":[{"name":"id","type":"uint256","internalType":"uint256"},{"name":"orderType","type":"uint8","internalType":"enum LimitExecutorV2.OrderType"},{"name":"status","type":"uint8","internalType":"enum LimitExecutorV2.OrderStatus"},{"name":"trader","type":"address","internalType":"address"},{"name":"symbol","type":"string","internalType":"string"},{"name":"isLong","type":"bool","internalType":"bool"},{"name":"collateral","type":"uint256","internalType":"uint256"},{"name":"leverage","type":"uint256","internalType":"uint256"},{"name":"triggerPrice","type":"uint256","internalType":"uint256"},{"name":"positionId","type":"uint256","internalType":"uint256"},{"name":"createdAt","type":"uint256","internalType":"uint256"},{"name":"executedAt","type":"uint256","internalType":"uint256"},{"name":"expiresAt","type":"uint256","internalType":"uint256"},{"name":"nonce","type":"uint256","internalType":"uint256"}],"stateMutability":"view"},{"type":"function","name":"positionManager","inputs":[],"outputs":[{"name":"","type":"address","internalType":"contract IPositionManager"}],"stateMutability":"view"},{"type":"function","name":"renounceRole","inputs":[{"name":"role","type":"bytes32","internalType":"bytes32"},{"name":"callerConfirmation","type":"address","internalType":"address"}],"outputs":[],"stateMutability":"nonpayable"},{"type":"function","name":"revokeRole","inputs":[{"name":"role","type":"bytes32","internalType":"bytes32"},{"name":"account","type":"address","internalType":"address"}],"outputs":[],"stateMutability":"nonpayable"},{"type":"function","name":"riskManager","inputs":[],"outputs":[{"name":"","type":"address","internalType":"contract IRiskManager"}],"stateMutability":"view"},{"type":"function","name":"supportsInterface","inputs":[{"name":"interfaceId","type":"bytes4","internalType":"bytes4"}],"outputs":[{"name":"","type":"bool","internalType":"bool"}],"stateMutability":"view"},{"type":"function","name":"tradingFeeBps","inputs":[],"outputs":[{"name":"","type":"uint256","internalType":"uint256"}],"stateMutability":"view"},{"type":"function","name":"treasuryManager","inputs":[],"outputs":[{"name":"","type":"address","internalType":"contract ITreasuryManager"}],"stateMutability":"view"},{"type":"function","name":"updateContracts","inputs":[{"name":"_riskManager","type":"address","internalType":"address"},{"name":"_positionManager","type":"address","internalType":"address"},{"name":"_treasuryManager","type":"address","internalType":"address"}],"outputs":[],"stateMutability":"nonpayable"},{"type":"function","name":"updateTradingFee","inputs":[{"name":"_tradingFeeBps","type":"uint256","internalType":"uint256"}],"outputs":[],"stateMutability":"nonpayable"},{"type":"function","name":"usdc","inputs":[],"outputs":[{"name":"","type":"address","internalType":"contract IERC20"}],"stateMutability":"view"},{"type":"function","name":"userOrderNonces","inputs":[{"name":"","type":"address","internalType":"address"}],"outputs":[{"name":"","type":"uint256","internalType":"uint256"}],"stateMutability":"view"},{"type":"function","name":"userOrders","inputs":[{"name":"","type":"address","internalType":"address"},{"name":"","type":"uint256","internalType":"uint256"}],"outputs":[{"name":"","type":"uint256","internalType":"uint256"}],"stateMutability":"view"},{"type":"event","name":"BadDebtCovered","inputs":[{"name":"trader","type":"address","indexed":true,"internalType":"address"},{"name":"excessLoss","type":"uint256","indexed":false,"internalType":"uint256"},{"name":"totalLoss","type":"uint256","indexed":false,"internalType":"uint256"}],"anonymous":false},{"type":"event","name":"LimitOrderCancelled","inputs":[{"name":"orderId","type":"uint256","indexed":true,"internalType":"uint256"},{"name":"trader","type":"address","indexed":true,"internalType":"address"}],"anonymous":false},{"type":"event","name":"LimitOrderCreated","inputs":[{"name":"orderId","type":"uint256","indexed":true,"internalType":"uint256"},{"name":"trader","type":"address","indexed":true,"internalType":"address"},{"name":"orderType","type":"uint8","indexed":false,"internalType":"enum LimitExecutorV2.OrderType"},{"name":"symbol","type":"string","indexed":false,"internalType":"string"},{"name":"triggerPrice","type":"uint256","indexed":false,"internalType":"uint256"},{"name":"nonce","type":"uint256","indexed":false,"internalType":"uint256"}],"anonymous":false},{"type":"event","name":"LimitOrderExecuted","inputs":[{"name":"orderId","type":"uint256","indexed":true,"internalType":"uint256"},{"name":"positionId","type":"uint256","indexed":true,"internalType":"uint256"},{"name":"keeper","type":"address","indexed":true,"internalType":"address"},{"name":"executionPrice","type":"uint256","indexed":false,"internalType":"uint256"}],"anonymous":false},{"type":"event","name":"RoleAdminChanged","inputs":[{"name":"role","type":"bytes32","indexed":true,"internalType":"bytes32"},{"name":"previousAdminRole","type":"bytes32","indexed":true,"internalType":"bytes32"},{"name":"newAdminRole","type":"bytes32","indexed":true,"internalType":"bytes32"}],"anonymous":false},{"type":"event","name":"RoleGranted","inputs":[{"name":"role","type":"bytes32","indexed":true,"internalType":"bytes32"},{"name":"account","type":"address","indexed":true,"internalType":"address"},{"name":"sender","type":"address","indexed":true,"internalType":"address"}],"anonymous":false},{"type":"event","name":"RoleRevoked","inputs":[{"name":"role","type":"bytes32","indexed":true,"internalType":"bytes32"},{"name":"account","type":"address","indexed":true,"internalType":"address"},{"name":"sender","type":"address","indexed":true,"internalType":"address"}],"anonymous":false},{"type":"event","name":"StopLossTriggered","inputs":[{"name":"orderId","type":"uint256","indexed":true,"internalType":"uint256"},{"name":"positionId","type":"uint256","indexed":true,"internalType":"uint256"},{"name":"keeper","type":"address","indexed":true,"internalType":"address"},{"name":"exitPrice","type":"uint256","indexed":false,"internalType":"uint256"},{"name":"pnl","type":"int256","indexed":false,"internalType":"int256"}],"anonymous":false},{"type":"event","name":"TotalLiquidation","inputs":[{"name":"trader","type":"address","indexed":true,"internalType":"address"},{"name":"collateral","type":"uint256","indexed":false,"internalType":"uint256"}],"anonymous":false},{"type":"event","name":"TradingFeeUpdated","inputs":[{"name":"tradingFeeBps","type":"uint256","indexed":false,"internalType":"uint256"}],"anonymous":false},{"type":"error","name":"AccessControlBadConfirmation","inputs":[]},{"type":"error","name":"AccessControlUnauthorizedAccount","inputs":[{"name":"account","type":"address","internalType":"address"},{"name":"neededRole","type":"bytes32","internalType":"bytes32"}]},{"type":"error","name":"ECDSAInvalidSignature","inputs":[]},{"type":"error","name":"ECDSAInvalidSignatureLength","inputs":[{"name":"length","type":"uint256","internalType":"uint256"}]},{"type":"error","name":"ECDSAInvalidSignatureS","inputs":[{"name":"s","type":"bytes32","internalType":"bytes32"}]},{"type":"error","name":"ReentrancyGuardReentrantCall","inputs":[]}],"bytecode":{"object":"0x60a0346200031757601f62003fda38819003918201601f191683019291906001600160401b038411838510176200031c578160c092849260409687528339810103126200031757620000518162000332565b906020916200006283830162000332565b6200006f85840162000332565b906200007e6060850162000332565b906200009b60a0620000936080880162000332565b960162000332565b600180805560058055600655956001600160a01b03948516918215620002d35785169384156200028457851692831562000231578516948515620001de57808716156200019a57871615620001575750916200013193916200013896959360805260018060a01b03199182600254161760025581600354161760035560045416176004556200012a3362000347565b50620003c7565b5062000469565b5051613ab39081620005078239608051818181611365015261227e0152f35b60649088519062461bcd60e51b82526004820152601d60248201527f4c696d69744578656375746f723a20496e76616c6964207369676e65720000006044820152fd5b885162461bcd60e51b815260048101839052601d60248201527f4c696d69744578656375746f723a20496e76616c6964206b65657065720000006044820152606490fd5b885162461bcd60e51b815260048101839052602660248201527f4c696d69744578656375746f723a20496e76616c69642054726561737572794d60448201526530b730b3b2b960d11b6064820152608490fd5b885162461bcd60e51b815260048101839052602660248201527f4c696d69744578656375746f723a20496e76616c696420506f736974696f6e4d60448201526530b730b3b2b960d11b6064820152608490fd5b885162461bcd60e51b815260048101839052602260248201527f4c696d69744578656375746f723a20496e76616c6964205269736b4d616e616760448201526132b960f11b6064820152608490fd5b885162461bcd60e51b815260048101839052601b60248201527f4c696d69744578656375746f723a20496e76616c6964205553444300000000006044820152606490fd5b600080fd5b634e487b7160e01b600052604160045260246000fd5b51906001600160a01b03821682036200031757565b6001600160a01b031660008181527fad3228b676f7d3cd4284a5443f17f1962b36e491b30a40b2405849e597ba5fb5602052604081205490919060ff16620003c357818052816020526040822081835260205260408220600160ff19825416179055339160008051602062003fba8339815191528180a4600190565b5090565b6001600160a01b031660008181527f0363fc6b1c9d3a5e0ab0c2ddc08deb0f30108829db06e84f370d2858ffe78c4660205260408120549091907ffc8737ab85eb45125971625a9ebdb75cc78e01d5c1fa80c4c6e5203f47bc4fab9060ff166200046457808352826020526040832082845260205260408320600160ff1982541617905560008051602062003fba833981519152339380a4600190565b505090565b6001600160a01b031660008181527f92731b430a99d226833495b5b5a9eee62a15e2a9df1b0a790bc8afce8b03780660205260408120549091907f9c6721068556a3c372f1c2ef739a54f29e29d287d6ef1e7b26a65200f38e6fb09060ff166200046457808352826020526040832082845260205260408320600160ff1982541617905560008051602062003fba833981519152339380a460019056fe608080604052600436101561001357600080fd5b60003560e01c90816301ffc9a71461282d575080630e1df2f5146125c35780631163eef3146123e4578063248a9ca3146123b55780632a58b330146123975780632f2ff15d14612358578063364bc15a1461231d57806336568abe146122d65780633cea70d9146122ad5780633e413bee14612268578063478426631461223f578063514fcac71461216c57806353f7af1614611cc457806363c69f08146120b85780636c7ad1f014611dcc5780636dca4d4414611d27578063791b98bc14611cfe5780637acba68014611cc45780637bc6a9721461172a578063856652e9146116d257806391d1485414611685578063924cca9a1461166757806392feadb514611649578063a217fddf1461162d578063a4634739146111a7578063a85c38ef14611099578063af607c3514610c43578063b54496b014610c26578063b85429031461090f578063bc15e601146108de578063d09ef241146107c7578063d547741f14610786578063d97ef2b31461074b578063e1a67828146106ba5763f19de9d8146101a057600080fd5b346106b55760246101b036612adf565b6101c1979296939795919495612bed565b6101c9612f70565b6101d4861515612dba565b6101df874210612dfe565b60018060a01b039485851660005260096020526102026040600020548a14612e3a565b600086600354166040519586809263eb02c30160e01b82528760048301525afa9384156106a957600094610672575b5061030c61032092610306610315936102538a8a168b60208b015116146133eb565b61027760ff6101208a015161026781612a77565b61027081612a77565b161561342c565b8c60405160208101916001600160601b03198c60601b1683528960348301528d605483015260748201528d60948201523060601b60b48201526853544f505f4c4f535360b81b60c882015260b181526102cf81612a3b565b5190207f19457468657265756d205369676e6564204d6573736167653a0a333200000000600052601c52603c600020923691612e91565b90612f93565b9092919261305f565b851684861614612ec8565b8383166000526009602052604060002061033a8154612f08565b90556006549561034987612f08565b6006556040830151916040519261035f84612a0c565b888452600260208501526000604085015286861660608501526080840152600060a0840152600060c0840152600060e084015286610100840152610120830152426101408301526000610160830152610180820152866101a0820152856000526007602052604060002090805182556001820160208201516103e081612a77565b6103e981612a77565b60ff8019835416911617815561040c604083015161040681612a77565b82612f17565b6060820151815462010000600160b01b03191660109190911b62010000600160b01b031617905560808101518051906001600160401b03821161065c57610456600285015461293c565b601f8111610615575b5091602099959391899795938b90601f8311600114610585576101a06040948461055e9a9895600080516020613a5e8339815191529c9a9895600b9560009261057a575b50508160011b916000199060031b1c19161760028501555b6104da60a08201511515600386019060ff801983541691151516179055565b60c0810151600485015560e081015160058501556101008101516006850155610120810151600785015561014081015160088501556101608101516009850155610180810151600a850155015191015583831660005260088b526105418883600020612f36565b0151926040519485946002865260808c8701526080860190612aba565b976040850152606084015216940390a360018055604051908152f35b0151905038806104a3565b90600285016000528c6000209160005b601f19851681106105fb5750604094600185600080516020613a5e8339815191529c9a9895600b956101a09561055e9e9c99601f198116106105e2575b505050811b0160028501556104bb565b015160001960f88460031b161c191690553880806105d2565b8183015184558d9b50600190930192918e01918e01610595565b600285016000526020600020601f840160051c810160208510610655575b601f830160051c8201811061064957505061045f565b60008155600101610633565b5080610633565b634e487b7160e01b600052604160045260246000fd5b6103159194506103209261030661069e61030c933d806000833e6106968183612a56565b8101906132df565b969350509250610231565b6040513d6000823e3d90fd5b600080fd5b346106b55760203660031901126106b5576004356106d6612c67565b6064811161070f576020817fa3dfe13986da4bcfdc32f544ebe130cb8ec20a2afc45e7c3994975076a08e57892600555604051908152a1005b60405162461bcd60e51b81526020600482015260146024820152730a8e4c2c8d2dcce40cccaca40e8dede40d0d2ced60631b6044820152606490fd5b346106b55760003660031901126106b55760206040517f9c6721068556a3c372f1c2ef739a54f29e29d287d6ef1e7b26a65200f38e6fb08152f35b346106b55760403660031901126106b5576107c56004356107a56128cb565b908060005260006020526107c0600160406000200154612ca1565b612d45565b005b346106b55760203660031901126106b5576107e0613617565b5060043560005260076020526108da6040600020600b6040519161080383612a0c565b80548352600181015460ff811661081981612a77565b602085015260ff8160081c1661082e81612a77565b604085015260018060a01b039060101c16606084015260405161085f816108588160028601612976565b0382612a56565b608084015260ff600382015416151560a0840152600481015460c0840152600581015460e08401526006810154610100840152600781015461012084015260088101546101408401526009810154610160840152600a81015461018084015201546101a0820152604051918291602083526020830190612b32565b0390f35b346106b55760203660031901126106b557600435600052600a602052602060ff604060002054166040519015158152f35b346106b5576020806003193601126106b5576001600160a01b03806109326128b5565b166000526008808352604060002092604051808583829754938481520190600052836000209260005b85828210610c105750505061097292500385612a56565b60009160005b85518110156109f75761098b8187613680565b51806000526007845260ff80600160406000200154851c166109ac81612a77565b1591826109de575b50506109c9575b6109c490612f08565b610978565b926109d66109c491612f08565b9390506109bb565b909150600052600a8452604060002054161587806109b4565b50919290610a0484613694565b93610a126040519586612a56565b808552610a21601f1991613694565b018160005b828110610bfa5750505060009160005b8651811015610b9c57610a498188613680565b5180600052600780855260ff906001928284604060002001548a1c16610a6e81612a77565b1580610b85575b610a8c575b50505050610a8790612f08565b610a36565b610a87949792610b7b9492600b92600052808952604060002091888c828c60405198610ab78a612a0c565b87548a5287015492839183831690610ace82612a77565b8b01521c16610adc81612a77565b604088015260101c166060860152604051610afe816108588160028801612976565b6080860152600383015416151560a0850152600482015460c0850152600582015460e08501526006820154610100850152810154610120840152898101546101408401526009810154610160840152600a81015461018084015201546101a0820152610b6a828a613680565b52610b758189613680565b50612f08565b9390888080610a7a565b5080600052600a8752826040600020541615610a75565b604080518481528751818601819052600092600582901b83018101918a880191889085015b828710610bce5785850386f35b909192938280610bea600193603f198a82030186528851612b32565b9601920196019592919092610bc1565b610c02613617565b828289010152018290610a26565b855484526001958601958a95509301920161095b565b346106b55760003660031901126106b557602060405161012c8152f35b346106b5576024610c5336612adf565b610c64979296939795919495612bed565b610c6c612f70565b610c77861515612dba565b610c82874210612dfe565b60018060a01b03948585166000526009602052610ca56040600020548a14612e3a565b600086600354166040519586809263eb02c30160e01b82528760048301525afa9384156106a95760009461106a575b5061030c610d509261030661031593610cf68a8a168b60208b015116146133eb565b610d0a60ff6101208a015161026781612a77565b8c60405160208101916001600160601b03198c60601b1683528960348301528d605483015260748201528d60948201523060601b60b482015260a881526102cf81612a3b565b83831660005260096020526040600020610d6a8154612f08565b905560065495610d7987612f08565b60065560408301519160405192610d8f84612a0c565b888452600160208501526000604085015286861660608501526080840152600060a0840152600060c0840152600060e084015286610100840152610120830152426101408301526000610160830152610180820152866101a082015285600052600760205260406000209080518255600182016020820151610e1081612a77565b610e1981612a77565b60ff80198354169116178155610e36604083015161040681612a77565b6060820151815462010000600160b01b03191660109190911b62010000600160b01b031617905560808101518051906001600160401b03821161065c57610e80600285015461293c565b601f8111611023575b5091602099959391899795938b90601f8311600114610f93576101a06040948461055e9a9895600080516020613a5e8339815191529c9a9895600b95600092610f88575b50508160011b916000199060031b1c19161760028501555b610f0460a08201511515600386019060ff801983541691151516179055565b60c0810151600485015560e081015160058501556101008101516006850155610120810151600785015561014081015160088501556101608101516009850155610180810151600a850155015191015583831660005260088b52610f6b8883600020612f36565b0151926040519485946001865260808c8701526080860190612aba565b015190503880610ecd565b90600285016000528c6000209160005b601f19851681106110095750604094600185600080516020613a5e8339815191529c9a9895600b956101a09561055e9e9c99601f19811610610ff0575b505050811b016002850155610ee5565b015160001960f88460031b161c19169055388080610fe0565b8183015184558d9b50600190930192918e01918e01610fa3565b600285016000526020600020601f840160051c810160208510611063575b601f830160051c82018110611057575050610e89565b60008155600101611041565b5080611041565b610315919450610d509261030661108e61030c933d806000833e6106968183612a56565b969350509250610cd4565b346106b55760203660031901126106b55760043560005260076020526020604060002080549060018101549060ff821690604051926110e6846110df8160028601612976565b0385612a56565b60ff600383015416936004830154600584015460068501549060078601549261116d600888015495600989015497600b600a8b01549a01549a6040519e8f9e8f90815261113283612a77565b01528c604060ff8360081c169161114883612a77565b015260101c6001600160a01b031660608d01526101c060808d018190528c0190612aba565b98151560a08b015260c08a015260e08901526101008801526101208701526101408601526101608501526101808401526101a08301520390f35b346106b5576111b536612880565b906111be612bed565b6111c6612f70565b8060005260076020526040600020906111e1825415156130ce565b80600052600a6020526111fc60ff604060002054161561310c565b60018201549161121b60ff8460081c1661121581612a77565b1561314a565b60ff831661122881612a77565b6115f75761123b600a8201544210612dfe565b60405161124f816108588160028601612976565b6020815191012061126a611263868061318a565b3691612e91565b60208151910120036115c05761127f8461347f565b600381015460ff1680156115a7576112a1600683015460208701351115613208565b60018060a01b0360025416906005830154602060048501968754946040518080958194631a14f6d760e21b835260018060a01b039060101c169788600484015260a060248401526112f860a4840160028d01612976565b9160448401528960648401521515608483015203915afa9081156106a95760009161156d575b501561152857600480546040516323b872dd60e01b81526001600160a01b0393841692810192909252821660248201526044810192909252602090829060649082906000907f0000000000000000000000000000000000000000000000000000000000000000165af19081156106a9576000916114ee575b50156114b257602060018060a01b03600354169460018060a01b03600184015460101c169560ff60038501541695546000846005870154940135986040519889958694859363c286db6960e01b8552600485015260c0602485015261140160c4850160028c01612976565b9215156044850152606484015260848301528a60a483015203925af19283156106a95760009361147e575b5061010061ff00196001830154161760018201558260078201556009429101556040519283527f5612466bb8a3ed2e193f1b34bea4b4797559a2028ea2a01391d0a276601793af60203394a460018055005b9092506020813d6020116114aa575b8161149a60209383612a56565b810103126106b55751918461142c565b3d915061148d565b60405162461bcd60e51b81526020600482015260146024820152731554d110c81d1c985b9cd9995c8819985a5b195960621b6044820152606490fd5b90506020813d602011611520575b8161150960209383612a56565b810103126106b55761151a90613254565b85611396565b3d91506114fc565b60405162461bcd60e51b815260206004820152601760248201527f54726164652076616c69646174696f6e206661696c65640000000000000000006044820152606490fd5b90506020813d60201161159f575b8161158860209383612a56565b810103126106b55761159990613254565b8761131e565b3d915061157b565b6115bb6006830154602087013510156131bc565b6112a1565b60405162461bcd60e51b815260206004820152600f60248201526e0a6f2dac4ded840dad2e6dac2e8c6d608b1b6044820152606490fd5b60405162461bcd60e51b815260206004820152600e60248201526d2737ba103634b6b4ba1037b832b760911b6044820152606490fd5b346106b55760003660031901126106b557602060405160008152f35b346106b55760003660031901126106b557602060405162278d008152f35b346106b55760003660031901126106b5576020600554604051908152f35b346106b55760403660031901126106b55761169e6128cb565b600435600052600060205260406000209060018060a01b0316600052602052602060ff604060002054166040519015158152f35b346106b55760403660031901126106b5576116eb6128b5565b6001600160a01b03166000908152600860205260409020805460243591908210156106b55760209161171c9161290e565b90546040519160031b1c8152f35b346106b5576101203660031901126106b5576117446128b5565b6024356001600160401b0381116106b5576117639036906004016128e1565b6044359182151583036106b557610104356001600160401b0381116106b5576117909036906004016128e1565b611798612bed565b6117a0612f70565b60643515611c8a5760843515611c52576117bd60a4351515612dba565b6117ca60e4354210612dfe565b62278d004201804211611c3c5760e43511611c065761030c611883916103066118969460018060a01b038a16600052600960205261181060406000205460c43514612e3a565b60405160208101906001600160601b03198c60601b168252898960348301376102cf60e9828d8d820190151560f81b60348201526064356035820152608435605582015260a435607582015260c435609582015260e43560b58201523060601b60d58201520360c9810184520182612a56565b6001600160a01b03868116911614612ec8565b6001600160a01b038416600090815260096020526040902080546118b990612f08565b9055600654926118c884612f08565b600655604051906118d882612a0c565b84825260006020830181905260408301526001600160a01b0386166060830152611903368585612e91565b6080830152151560a082015260643560c082015260843560e082015260a435610100820152600061012082015242610140820152600061016082015260e43561018082015260c4356101a08201528360005260076020526040600020908051825560018201602082015161197681612a77565b61197f81612a77565b60ff8019835416911617815561199c604083015161040681612a77565b6060820151815462010000600160b01b03191660109190911b62010000600160b01b031617905560808101518051906001600160401b03821161065c576119e6600285015461293c565b601f8111611bbf575b509285926020989288958a90601f8311600114611b305760a0959383600080516020613a5e833981519152999a9694600b946101a094600092611b25575b50508160011b916000199060031b1c19161760028501555b611a63878201511515600386019060ff801983541691151516179055565b60c0810151600485015560e081015160058501556101008101516006850155610120810151600785015561014081015160088501556101608101516009850155610180810151600a8501550151910155600180841b03811660005260088952611ad0866040600020612f36565b6040519384926000845260808b85015281608085015284840137600082880184015260a435604083015260c43560608301526000196001841b011695601f01601f19168101030190a360018055604051908152f35b015190508f80611a2d565b90600285016000528b6000209160005b601f1985168110611ba2575093600184600b946101a09460a09a98600080516020613a5e8339815191529d9e9a98601f19811610611b89575b505050811b016002850155611a45565b015160001960f88460031b161c191690558f8080611b79565b8282015184558c99508b9850600190930192918d01918d01611b40565b600285016000526020600020601f840160051c810160208510611bff575b601f830160051c82018110611bf35750506119ef565b60008155600101611bdd565b5080611bdd565b60405162461bcd60e51b815260206004820152600e60248201526d22bc3834b93c903a37b7903330b960911b6044820152606490fd5b634e487b7160e01b600052601160045260246000fd5b60405162461bcd60e51b815260206004820152601060248201526f496e76616c6964206c6576657261676560801b6044820152606490fd5b60405162461bcd60e51b8152602060048201526012602482015271125b9d985b1a590818dbdb1b185d195c985b60721b6044820152606490fd5b346106b55760203660031901126106b5576001600160a01b03611ce56128b5565b1660005260096020526020604060002054604051908152f35b346106b55760003660031901126106b5576003546040516001600160a01b039091168152602090f35b346106b55760603660031901126106b557611d406128b5565b611d486128cb565b6044356001600160a01b03818116939092918490036106b5578290611d6b612c67565b1680611db3575b501680611d9a575b5080611d8257005b6001600160601b0360a01b6004541617600455600080f35b6001600160601b0360a01b600354161760035581611d7a565b6001600160601b0360a01b600254161760025583611d72565b346106b557611dda36612880565b90611de3612bed565b611deb612f70565b8060005260209060078252604060002092611e08845415156130ce565b81600052600a8352611e2260ff604060002054161561310c565b6001840190600260ff8354611e3f828260081c1661121581612a77565b16611e4981612a77565b0361208357611e5d600a8601544210612dfe565b611e668161347f565b60035460078601805460405163eb02c30160e01b81526004810182905290976001600160a01b039384169592949093906000836024818a5afa9283156106a957600093612066575b50611ec360ff61012085015161026781612a77565b6060830151156120085760068501548982013511611fc3576044998980925b01359a8b9160006040519a8b948593632d6ce61d60e01b8552600485015260248401525af19586156106a957600096611f90575b5090611f4691866080620186a0611f3460a08601516005549061346c565b0492865460101c1693015133936136c9565b61010061ff001982541617905560094291015554926040519485528401527f5100c791f386a025bd2a581f13fee92c3a36f68c3050129a2f97eec8fd7ce83960403394a460018055005b919095508782813d8311611fbc575b611fa98183612a56565b810103126106b557905194611f46611f16565b503d611f9f565b60405162461bcd60e51b8152600481018a9052601960248201527f53746f70206e6f742074726967676572656420286c6f6e6729000000000000006044820152606490fd5b6006850154898201351061202157604499898092611ee2565b60405162461bcd60e51b8152600481018a9052601a60248201527f53746f70206e6f7420747269676765726564202873686f7274290000000000006044820152606490fd5b61207c9193503d806000833e6106968183612a56565b918a611eae565b60405162461bcd60e51b815260048101859052600d60248201526c4e6f742073746f70206c6f737360981b6044820152606490fd5b346106b5576020806003193601126106b5576001600160a01b036120da6128b5565b1660005260088152604060002060405190818382549182815201908192600052846000209060005b8682821061215857868661211882880383612a56565b604051928392818401908285525180915260408401929160005b82811061214157505050500390f35b835185528695509381019392810192600101612132565b835485529093019260019283019201612102565b346106b55760203660031901126106b557600435612188612f70565b806000526007602052600160406000206121a4815415156130ce565b018054610200906121c3601082901c6001600160a01b03163314613261565b6121d660ff8260081c1661121581612a77565b83600052600a6020526121f160ff604060002054161561329f565b61ff00191617905580600052600a6020526040600020600160ff1982541617905533907f34cf495316dbb07c8286e6c6b35542a47854aaf8050f2dd51ab0347b85558297600080a360018055005b346106b55760003660031901126106b5576002546040516001600160a01b039091168152602090f35b346106b55760003660031901126106b5576040517f00000000000000000000000000000000000000000000000000000000000000006001600160a01b03168152602090f35b346106b55760003660031901126106b5576004546040516001600160a01b039091168152602090f35b346106b55760403660031901126106b5576122ef6128cb565b336001600160a01b0382160361230b576107c590600435612d45565b60405163334bd91960e11b8152600490fd5b346106b55760003660031901126106b55760206040517ffc8737ab85eb45125971625a9ebdb75cc78e01d5c1fa80c4c6e5203f47bc4fab8152f35b346106b55760403660031901126106b5576107c56004356123776128cb565b90806000526000602052612392600160406000200154612ca1565b612cc7565b346106b55760003660031901126106b5576020600654604051908152f35b346106b55760203660031901126106b55760043560005260006020526020600160406000200154604051908152f35b346106b55760803660031901126106b5576123fd6128b5565b6024356044356001600160401b036064358181116106b5576124239036906004016128e1565b92909161242e612bed565b612436612f70565b846000526020926007845260016040600020612454815415156130ce565b019283549760018060a01b039161248760ff8484169b61247a8d878360101c1614613261565b60081c1661121581612a77565b88600052600a87526124a160ff604060002054161561329f565b89600052600987526124b96040600020548214612e3a565b60405190878201926001600160601b03199060601b16835289603483015260548201523060601b60748201526510d05390d15360d21b6088820152606e815260a08101948186109086111761065c57600a976103068b956125569461030c9461255d996040525190207f19457468657265756d205369676e6564204d6573736167653a0a333200000000600052601c52603c600020923691612e91565b1614612ec8565b846000526009825260406000206125748154612f08565b905561020061ff001982541617905582600052526040600020600160ff198254161790557f34cf495316dbb07c8286e6c6b35542a47854aaf8050f2dd51ab0347b85558297600080a360018055005b346106b5576125d136612880565b906125da612bed565b6125e2612f70565b806000526020906007825260406000206125fe815415156130ce565b81600052600a835261261860ff604060002054161561310c565b60018101600160ff8254612634828260081c1661121581612a77565b1661263e81612a77565b036127f657612652600a8301544210612dfe565b61265b8561347f565b60035460078301805460405163eb02c30160e01b8152600481018290526001600160a01b039592949293861690600081602481855afa9283156106a95760449a8a926000956127d7575b5082906126bc60ff61012088015161026781612a77565b6060860151156127bf576126d96006890154838301351015613208565b01359a8b9160006040519586948593632d6ce61d60e01b8552600485015260248401525af19081156106a957600091612770575b50907f5612466bb8a3ed2e193f1b34bea4b4797559a2028ea2a01391d0a276601793af9561274c926080620186a0611f3460a08601516005549061346c565b61010061ff001982541617905560094291015554926040519485523394a460018055005b9190508782813d83116127b8575b6127888183612a56565b810103126106b55790517f5612466bb8a3ed2e193f1b34bea4b4797559a2028ea2a01391d0a276601793af61270d565b503d61277e565b6127d260068901548383013511156131bc565b6126d9565b839195506127ef903d806000833e6106968183612a56565b94906126a5565b60405162461bcd60e51b815260048101859052600f60248201526e4e6f74206c696d697420636c6f736560881b6044820152606490fd5b346106b55760203660031901126106b5576004359063ffffffff60e01b82168092036106b557602091637965db0b60e01b811490811561286f575b5015158152f35b6301ffc9a760e01b14905083612868565b906003196040818401126106b55760043592602435916001600160401b0383116106b557826080920301126106b55760040190565b600435906001600160a01b03821682036106b557565b602435906001600160a01b03821682036106b557565b9181601f840112156106b5578235916001600160401b0383116106b557602083818601950101116106b557565b80548210156129265760005260206000200190600090565b634e487b7160e01b600052603260045260246000fd5b90600182811c9216801561296c575b602083101461295657565b634e487b7160e01b600052602260045260246000fd5b91607f169161294b565b90600092918054916129878361293c565b9182825260019384811690816000146129e957506001146129a9575b50505050565b90919394506000526020928360002092846000945b8386106129d55750505050010190388080806129a3565b8054858701830152940193859082016129be565b9294505050602093945060ff191683830152151560051b010190388080806129a3565b6101c081019081106001600160401b0382111761065c57604052565b6001600160401b03811161065c57604052565b60e081019081106001600160401b0382111761065c57604052565b90601f801991011681019081106001600160401b0382111761065c57604052565b60031115612a8157565b634e487b7160e01b600052602160045260246000fd5b60005b838110612aaa5750506000910152565b8181015183820152602001612a9a565b90602091612ad381518092818552858086019101612a97565b601f01601f1916010190565b9060c06003198301126106b5576004356001600160a01b03811681036106b557916024359160443591606435916084359160a435906001600160401b0382116106b557612b2e916004016128e1565b9091565b90815181526020820151612b4581612a77565b60208201526040820151612b5881612a77565b604082015260018060a01b036060830151166060820152612b8860808301516101c0806080850152830190612aba565b9160a0810151151560a083015260c081015160c083015260e081015160e0830152610100808201519083015261012080820151908301526101408082015190830152610160808201519083015261018080820151908301526101a08091015191015290565b3360009081527f0363fc6b1c9d3a5e0ab0c2ddc08deb0f30108829db06e84f370d2858ffe78c4660205260409020547ffc8737ab85eb45125971625a9ebdb75cc78e01d5c1fa80c4c6e5203f47bc4fab9060ff1615612c495750565b6044906040519063e2517d3f60e01b82523360048301526024820152fd5b3360009081527fad3228b676f7d3cd4284a5443f17f1962b36e491b30a40b2405849e597ba5fb5602052604081205460ff1615612c495750565b80600052600060205260406000203360005260205260ff6040600020541615612c495750565b9060009180835282602052604083209160018060a01b03169182845260205260ff60408420541615600014612d4057808352826020526040832082845260205260408320600160ff198254161790557f2f8788117e7eff1d82e926ec794901d17c78024a50270940304540a733656f0d339380a4600190565b505090565b9060009180835282602052604083209160018060a01b03169182845260205260ff604084205416600014612d405780835282602052604083208284526020526040832060ff1981541690557ff6391f5c32d9c69d2a47ea670b442974b53935d1edc7fd64eb21e047a839171b339380a4600190565b15612dc157565b60405162461bcd60e51b8152602060048201526015602482015274496e76616c6964207472696767657220707269636560581b6044820152606490fd5b15612e0557565b60405162461bcd60e51b815260206004820152600d60248201526c13dc99195c88195e1c1a5c9959609a1b6044820152606490fd5b15612e4157565b60405162461bcd60e51b815260206004820152600d60248201526c496e76616c6964206e6f6e636560981b6044820152606490fd5b6001600160401b03811161065c57601f01601f191660200190565b929192612e9d82612e76565b91612eab6040519384612a56565b8294818452818301116106b5578281602093846000960137010152565b15612ecf57565b60405162461bcd60e51b8152602060048201526011602482015270496e76616c6964207369676e617475726560781b6044820152606490fd5b6000198114611c3c5760010190565b90612f2181612a77565b61ff0082549160081b169061ff001916179055565b80546801000000000000000081101561065c57612f589160018201815561290e565b819291549060031b91821b91600019901b1916179055565b600260015414612f81576002600155565b604051633ee5aeb560e01b8152600490fd5b8151919060418303612fc457612fbd92506020820151906060604084015193015160001a90612fcf565b9192909190565b505060009160029190565b91907f7fffffffffffffffffffffffffffffff5d576e7357a4501ddfe92f46681b20a0841161305357926020929160ff608095604051948552168484015260408301526060820152600092839182805260015afa156130475780516001600160a01b0381161561303e57918190565b50809160019190565b604051903d90823e3d90fd5b50505060009160039190565b6004811015612a815780613071575050565b6001810361308b5760405163f645eedf60e01b8152600490fd5b600281036130ac5760405163fce698f760e01b815260048101839052602490fd5b6003146130b65750565b602490604051906335e2f38360e21b82526004820152fd5b156130d557565b60405162461bcd60e51b815260206004820152600f60248201526e13dc99195c881b9bdd08199bdd5b99608a1b6044820152606490fd5b1561311357565b60405162461bcd60e51b815260206004820152600f60248201526e13dc99195c8818d85b98d95b1b1959608a1b6044820152606490fd5b1561315157565b60405162461bcd60e51b81526020600482015260116024820152704f72646572206e6f742070656e64696e6760781b6044820152606490fd5b903590601e19813603018212156106b557018035906001600160401b0382116106b5576020019181360383136106b557565b156131c357565b60405162461bcd60e51b815260206004820152601960248201527f5072696365206e6f742072656163686564202873686f727429000000000000006044820152606490fd5b1561320f57565b60405162461bcd60e51b815260206004820152601860248201527f5072696365206e6f74207265616368656420286c6f6e672900000000000000006044820152606490fd5b519081151582036106b557565b1561326857565b60405162461bcd60e51b815260206004820152600f60248201526e2737ba1037b93232b91037bbb732b960891b6044820152606490fd5b156132a657565b60405162461bcd60e51b8152602060048201526011602482015270105b1c9958591e4818d85b98d95b1b1959607a1b6044820152606490fd5b9060209081838203126106b55782516001600160401b03938482116106b55701916101409384848403126106b5576040519485018581108282111761065c5760405283518552818401516001600160a01b03811681036106b5578286015260408401519081116106b557830182601f820112156106b55780519061336282612e76565b936133706040519586612a56565b8285528383830101116106b5578261338b9385019101612a97565b604083015261339c60608201613254565b60608301526080810151608083015260a081015160a083015260c081015160c083015260e081015160e08301526101008082015190830152610120809101519060038210156106b55782015290565b156133f257565b60405162461bcd60e51b81526020600482015260126024820152712737ba103837b9b4ba34b7b71037bbb732b960711b6044820152606490fd5b1561343357565b60405162461bcd60e51b81526020600482015260116024820152702837b9b4ba34b7b7103737ba1037b832b760791b6044820152606490fd5b81810292918115918404141715611c3c57565b6040808201359161012c8301808411611c3c5742116135e3574283116135ad57818161352661030c6134b38360ff9661318a565b976134e46060875180938c60209d8e84019788378201908d808b0135908301528a8201520388810184520182612a56565b519020926000937f19457468657265756d205369676e6564204d6573736167653a0a3332000000008552601c52610306611263603c862092606081019061318a565b7f9c6721068556a3c372f1c2ef739a54f29e29d287d6ef1e7b26a65200f38e6fb082528186528282206001600160a01b03909116825285522054161561356a575050565b60649250519062461bcd60e51b82526004820152601760248201527f496e76616c6964207072696365207369676e61747572650000000000000000006044820152fd5b815162461bcd60e51b815260206004820152600f60248201526e507269636520696e2066757475726560881b6044820152606490fd5b815162461bcd60e51b815260206004820152600d60248201526c141c9a58d948195e1c1a5c9959609a1b6044820152606490fd5b6040519061362482612a0c565b816101a0600091828152826020820152826040820152826060820152606060808201528260a08201528260c08201528260e082015282610100820152826101208201528261014082015282610160820152826101808201520152565b80518210156129265760209160051b010190565b6001600160401b03811161065c5760051b60200190565b600160ff1b8114611c3c5760000390565b91908203918211611c3c57565b929390936000926126ac8087029087820414871517156139e7576127106136f091046136ab565b818181126139fb575b50508086018181128588129080158216911516176139e7578281039085841280158284131691831216176139e7578481136139185750613738906136ab565b85811061377b57505060405193845250506001600160a01b0316907f02bd738e372fb8ffb3d159cb4f7645f830360f88becba14d5b1f3589d4f11b2e90602090a2565b61378891929493956136bc565b8181106138a5576004546001600160a01b039490851690813b156138a15760405163a250801b60e01b81526001600160a01b038681166004830152919091166024820152604481018490529086908290606490829084905af180156138965790869161387e575b5050906137fb916136bc565b91826138075750505050565b6004541690813b1561387a576040516339bc4ead60e01b81526001600160a01b03919091166004820152602481019290925282908290604490829084905af1801561386f57613858575b80806129a3565b6138628291612a28565b61386c5780613851565b80fd5b6040513d84823e3d90fd5b8380fd5b61388790612a28565b6138925784386137ef565b8480fd5b6040513d88823e3d90fd5b8680fd5b925050816138b257505050565b6004546001600160a01b031690813b1561387a576040516339bc4ead60e01b81526001600160a01b03919091166004820152602481019290925282908290604490829084905af1801561386f57613907575050565b6139118291612a28565b61386c5750565b60045494965094936001600160a01b03939084169150813b156138a15760405163a250801b60e01b81526001600160a01b038681166004830152919091166024820152604481019290925285908290606490829084905af180156139dc576139c9575b506004541690813b1561387a576040516339bc4ead60e01b81526001600160a01b03919091166004820152602481019290925282908290604490829084905af1801561386f57613907575050565b6139d590949194612a28565b923861397b565b6040513d87823e3d90fd5b634e487b7160e01b85526011600452602485fd5b909150613a1d613a1183613a17613a11856136ab565b916136ab565b906136bc565b60405191825260208201527f96e1a301f5f1259604ae4dcb902641261339f6aa9f13ec16f5ab331206fe1cd5604060018060a01b03881692a238806136f956fe8bbc519c9dde8c119fbb5aad762972250a8ff22b2715c673919ea29ce9fc9962a2646970667358221220c96433f21dc2fe9f9c948a5b0a28f47cbc2fe55e549c32f530a5ee9171204bc764736f6c634300081400332f8788117e7eff1d82e926ec794901d17c78024a50270940304540a733656f0d","linkReferences":{}},"methodIdentifiers":{"BACKEND_SIGNER_ROLE()":"d97ef2b3","DEFAULT_ADMIN_ROLE()":"a217fddf","KEEPER_ROLE()":"364bc15a","ORDER_VALIDITY_PERIOD()":"92feadb5","PRICE_VALIDITY_WINDOW()":"b54496b0","cancelOrder(uint256)":"514fcac7","cancelOrderGasless(address,uint256,uint256,bytes)":"1163eef3","cancelledOrders(uint256)":"bc15e601","createLimitCloseOrder(address,uint256,uint256,uint256,uint256,bytes)":"af607c35","createLimitOpenOrder(address,string,bool,uint256,uint256,uint256,uint256,uint256,bytes)":"7bc6a972","createStopLossOrder(address,uint256,uint256,uint256,uint256,bytes)":"f19de9d8","executeLimitCloseOrder(uint256,(string,uint256,uint256,bytes))":"0e1df2f5","executeLimitOpenOrder(uint256,(string,uint256,uint256,bytes))":"a4634739","executeStopLossOrder(uint256,(string,uint256,uint256,bytes))":"6c7ad1f0","getOrder(uint256)":"d09ef241","getRoleAdmin(bytes32)":"248a9ca3","getUserCurrentNonce(address)":"53f7af16","getUserOrders(address)":"63c69f08","getUserPendingOrders(address)":"b8542903","grantRole(bytes32,address)":"2f2ff15d","hasRole(bytes32,address)":"91d14854","nextOrderId()":"2a58b330","orders(uint256)":"a85c38ef","positionManager()":"791b98bc","renounceRole(bytes32,address)":"36568abe","revokeRole(bytes32,address)":"d547741f","riskManager()":"47842663","supportsInterface(bytes4)":"01ffc9a7","tradingFeeBps()":"924cca9a","treasuryManager()":"3cea70d9","updateContracts(address,address,address)":"6dca4d44","updateTradingFee(uint256)":"e1a67828","usdc()":"3e413bee","userOrderNonces(address)":"7acba680","userOrders(address,uint256)":"856652e9"},"id":50}