{"abi":[{"type":"constructor","inputs":[{"name":"_usdc","type":"address","internalType":"address"},{"name":"_riskManager","type":"address","internalType":"address"},{"name":"_positionManager","type":"address","internalType":"address"},{"name":"_treasuryManager","type":"address","internalType":"address"},{"name":"_backendSigner","type":"address","internalType":"address"}],"stateMutability":"nonpayable"},{"type":"function","name":"BACKEND_SIGNER_ROLE","inputs":[],"outputs":[{"name":"","type":"bytes32","internalType":"bytes32"}],"stateMutability":"view"},{"type":"function","name":"DEFAULT_ADMIN_ROLE","inputs":[],"outputs":[{"name":"","type":"bytes32","internalType":"bytes32"}],"stateMutability":"view"},{"type":"function","name":"KEEPER_ROLE","inputs":[],"outputs":[{"name":"","type":"bytes32","internalType":"bytes32"}],"stateMutability":"view"},{"type":"function","name":"MAX_SESSION_DURATION","inputs":[],"outputs":[{"name":"","type":"uint256","internalType":"uint256"}],"stateMutability":"view"},{"type":"function","name":"PRICE_VALIDITY_WINDOW","inputs":[],"outputs":[{"name":"","type":"uint256","internalType":"uint256"}],"stateMutability":"view"},{"type":"function","name":"authorizeSessionKey","inputs":[{"name":"sessionKeyAddress","type":"address","internalType":"address"},{"name":"duration","type":"uint256","internalType":"uint256"},{"name":"authSignature","type":"bytes","internalType":"bytes"}],"outputs":[],"stateMutability":"nonpayable"},{"type":"function","name":"executeTapToTrade","inputs":[{"name":"trader","type":"address","internalType":"address"},{"name":"symbol","type":"string","internalType":"string"},{"name":"isLong","type":"bool","internalType":"bool"},{"name":"collateral","type":"uint256","internalType":"uint256"},{"name":"leverage","type":"uint256","internalType":"uint256"},{"name":"signedPrice","type":"tuple","internalType":"struct TapToTradeExecutor.SignedPrice","components":[{"name":"symbol","type":"string","internalType":"string"},{"name":"price","type":"uint256","internalType":"uint256"},{"name":"timestamp","type":"uint256","internalType":"uint256"},{"name":"signature","type":"bytes","internalType":"bytes"}]},{"name":"userSignature","type":"bytes","internalType":"bytes"}],"outputs":[{"name":"positionId","type":"uint256","internalType":"uint256"}],"stateMutability":"nonpayable"},{"type":"function","name":"executeTapToTradeByKeeper","inputs":[{"name":"trader","type":"address","internalType":"address"},{"name":"symbol","type":"string","internalType":"string"},{"name":"isLong","type":"bool","internalType":"bool"},{"name":"collateral","type":"uint256","internalType":"uint256"},{"name":"leverage","type":"uint256","internalType":"uint256"},{"name":"signedPrice","type":"tuple","internalType":"struct TapToTradeExecutor.SignedPrice","components":[{"name":"symbol","type":"string","internalType":"string"},{"name":"price","type":"uint256","internalType":"uint256"},{"name":"timestamp","type":"uint256","internalType":"uint256"},{"name":"signature","type":"bytes","internalType":"bytes"}]}],"outputs":[{"name":"positionId","type":"uint256","internalType":"uint256"}],"stateMutability":"nonpayable"},{"type":"function","name":"getRoleAdmin","inputs":[{"name":"role","type":"bytes32","internalType":"bytes32"}],"outputs":[{"name":"","type":"bytes32","internalType":"bytes32"}],"stateMutability":"view"},{"type":"function","name":"grantRole","inputs":[{"name":"role","type":"bytes32","internalType":"bytes32"},{"name":"account","type":"address","internalType":"address"}],"outputs":[],"stateMutability":"nonpayable"},{"type":"function","name":"hasRole","inputs":[{"name":"role","type":"bytes32","internalType":"bytes32"},{"name":"account","type":"address","internalType":"address"}],"outputs":[{"name":"","type":"bool","internalType":"bool"}],"stateMutability":"view"},{"type":"function","name":"isSessionKeyValid","inputs":[{"name":"trader","type":"address","internalType":"address"},{"name":"sessionKeyAddress","type":"address","internalType":"address"}],"outputs":[{"name":"","type":"bool","internalType":"bool"}],"stateMutability":"view"},{"type":"function","name":"metaNonces","inputs":[{"name":"","type":"address","internalType":"address"}],"outputs":[{"name":"","type":"uint256","internalType":"uint256"}],"stateMutability":"view"},{"type":"function","name":"positionManager","inputs":[],"outputs":[{"name":"","type":"address","internalType":"contract IPositionManager"}],"stateMutability":"view"},{"type":"function","name":"renounceRole","inputs":[{"name":"role","type":"bytes32","internalType":"bytes32"},{"name":"callerConfirmation","type":"address","internalType":"address"}],"outputs":[],"stateMutability":"nonpayable"},{"type":"function","name":"revokeRole","inputs":[{"name":"role","type":"bytes32","internalType":"bytes32"},{"name":"account","type":"address","internalType":"address"}],"outputs":[],"stateMutability":"nonpayable"},{"type":"function","name":"revokeSessionKey","inputs":[{"name":"sessionKeyAddress","type":"address","internalType":"address"}],"outputs":[],"stateMutability":"nonpayable"},{"type":"function","name":"riskManager","inputs":[],"outputs":[{"name":"","type":"address","internalType":"contract IRiskManager"}],"stateMutability":"view"},{"type":"function","name":"sessionKeys","inputs":[{"name":"","type":"address","internalType":"address"},{"name":"","type":"address","internalType":"address"}],"outputs":[{"name":"keyAddress","type":"address","internalType":"address"},{"name":"expiresAt","type":"uint256","internalType":"uint256"},{"name":"isActive","type":"bool","internalType":"bool"}],"stateMutability":"view"},{"type":"function","name":"supportsInterface","inputs":[{"name":"interfaceId","type":"bytes4","internalType":"bytes4"}],"outputs":[{"name":"","type":"bool","internalType":"bool"}],"stateMutability":"view"},{"type":"function","name":"tradingFeeBps","inputs":[],"outputs":[{"name":"","type":"uint256","internalType":"uint256"}],"stateMutability":"view"},{"type":"function","name":"treasuryManager","inputs":[],"outputs":[{"name":"","type":"address","internalType":"contract ITreasuryManager"}],"stateMutability":"view"},{"type":"function","name":"updateFees","inputs":[{"name":"_tradingFeeBps","type":"uint256","internalType":"uint256"}],"outputs":[],"stateMutability":"nonpayable"},{"type":"function","name":"updateRiskManager","inputs":[{"name":"_riskManager","type":"address","internalType":"address"}],"outputs":[],"stateMutability":"nonpayable"},{"type":"function","name":"usdc","inputs":[],"outputs":[{"name":"","type":"address","internalType":"contract IERC20"}],"stateMutability":"view"},{"type":"event","name":"MetaTransactionExecuted","inputs":[{"name":"userAddress","type":"address","indexed":true,"internalType":"address"},{"name":"relayerAddress","type":"address","indexed":true,"internalType":"address"},{"name":"nonce","type":"uint256","indexed":false,"internalType":"uint256"}],"anonymous":false},{"type":"event","name":"RoleAdminChanged","inputs":[{"name":"role","type":"bytes32","indexed":true,"internalType":"bytes32"},{"name":"previousAdminRole","type":"bytes32","indexed":true,"internalType":"bytes32"},{"name":"newAdminRole","type":"bytes32","indexed":true,"internalType":"bytes32"}],"anonymous":false},{"type":"event","name":"RoleGranted","inputs":[{"name":"role","type":"bytes32","indexed":true,"internalType":"bytes32"},{"name":"account","type":"address","indexed":true,"internalType":"address"},{"name":"sender","type":"address","indexed":true,"internalType":"address"}],"anonymous":false},{"type":"event","name":"RoleRevoked","inputs":[{"name":"role","type":"bytes32","indexed":true,"internalType":"bytes32"},{"name":"account","type":"address","indexed":true,"internalType":"address"},{"name":"sender","type":"address","indexed":true,"internalType":"address"}],"anonymous":false},{"type":"event","name":"SessionKeyAuthorized","inputs":[{"name":"trader","type":"address","indexed":true,"internalType":"address"},{"name":"sessionKey","type":"address","indexed":true,"internalType":"address"},{"name":"expiresAt","type":"uint256","indexed":false,"internalType":"uint256"}],"anonymous":false},{"type":"event","name":"SessionKeyRevoked","inputs":[{"name":"trader","type":"address","indexed":true,"internalType":"address"},{"name":"sessionKey","type":"address","indexed":true,"internalType":"address"}],"anonymous":false},{"type":"event","name":"TapToTradeOrderExecuted","inputs":[{"name":"positionId","type":"uint256","indexed":true,"internalType":"uint256"},{"name":"trader","type":"address","indexed":true,"internalType":"address"},{"name":"symbol","type":"string","indexed":false,"internalType":"string"},{"name":"isLong","type":"bool","indexed":false,"internalType":"bool"},{"name":"collateral","type":"uint256","indexed":false,"internalType":"uint256"},{"name":"leverage","type":"uint256","indexed":false,"internalType":"uint256"},{"name":"price","type":"uint256","indexed":false,"internalType":"uint256"},{"name":"signer","type":"address","indexed":true,"internalType":"address"}],"anonymous":false},{"type":"error","name":"AccessControlBadConfirmation","inputs":[]},{"type":"error","name":"AccessControlUnauthorizedAccount","inputs":[{"name":"account","type":"address","internalType":"address"},{"name":"neededRole","type":"bytes32","internalType":"bytes32"}]},{"type":"error","name":"ECDSAInvalidSignature","inputs":[]},{"type":"error","name":"ECDSAInvalidSignatureLength","inputs":[{"name":"length","type":"uint256","internalType":"uint256"}]},{"type":"error","name":"ECDSAInvalidSignatureS","inputs":[{"name":"s","type":"bytes32","internalType":"bytes32"}]},{"type":"error","name":"ReentrancyGuardReentrantCall","inputs":[]}],"bytecode":{"object":"0x60a034620002d457601f62001e2638819003918201601f1916830191906001600160401b03831184841017620002d9578160a09285926040958652833981010312620002d4576200005082620002ef565b9160209262000061848301620002ef565b916200006f848201620002ef565b906200008c60806200008460608401620002ef565b9201620002ef565b6001805560058055936001600160a01b03938416908115620002925784169283156200023e578416918215620001e65784169384156200018e578516156200013f576200011995965060805260018060a01b0319918260025416176002558160035416176003556004541617600455620001063362000304565b50620001128162000384565b5062000426565b50516119429081620004c4823960805181818161066301528181610b410152610ec10152f35b855162461bcd60e51b815260048101889052602260248201527f546170546f54726164654578656375746f723a20496e76616c6964207369676e60448201526132b960f11b6064820152608490fd5b865162461bcd60e51b815260048101899052602b60248201527f546170546f54726164654578656375746f723a20496e76616c6964205472656160448201526a39bab93ca6b0b730b3b2b960a91b6064820152608490fd5b865162461bcd60e51b815260048101899052602b60248201527f546170546f54726164654578656375746f723a20496e76616c696420506f736960448201526a3a34b7b726b0b730b3b2b960a91b6064820152608490fd5b865162461bcd60e51b815260048101899052602760248201527f546170546f54726164654578656375746f723a20496e76616c6964205269736b60448201526626b0b730b3b2b960c91b6064820152608490fd5b60648888519062461bcd60e51b825280600483015260248201527f546170546f54726164654578656375746f723a20496e76616c696420555344436044820152fd5b600080fd5b634e487b7160e01b600052604160045260246000fd5b51906001600160a01b0382168203620002d457565b6001600160a01b031660008181527fad3228b676f7d3cd4284a5443f17f1962b36e491b30a40b2405849e597ba5fb5602052604081205490919060ff166200038057818052816020526040822081835260205260408220600160ff19825416179055339160008051602062001e068339815191528180a4600190565b5090565b6001600160a01b031660008181527f92731b430a99d226833495b5b5a9eee62a15e2a9df1b0a790bc8afce8b03780660205260408120549091907f9c6721068556a3c372f1c2ef739a54f29e29d287d6ef1e7b26a65200f38e6fb09060ff166200042157808352826020526040832082845260205260408320600160ff1982541617905560008051602062001e06833981519152339380a4600190565b505090565b6001600160a01b031660008181527f0363fc6b1c9d3a5e0ab0c2ddc08deb0f30108829db06e84f370d2858ffe78c4660205260408120549091907ffc8737ab85eb45125971625a9ebdb75cc78e01d5c1fa80c4c6e5203f47bc4fab9060ff166200042157808352826020526040832082845260205260408320600160ff1982541617905560008051602062001e06833981519152339380a460019056fe608080604052600436101561001357600080fd5b60003560e01c90816301ffc9a7146110b6575080631e6c63fe14610c89578063248a9ca314610c5a5780632f2ff15d14610c1b578063364bc15a14610be057806336568abe14610b995780633cea70d914610b705780633e413bee14610b2b5780634784266314610b0257806351d9f3ec14610a6957806378dacee1146109fc578063791b98bc146109d357806381e9c8d11461099d57806384f4fc6a146108b257806391d1485414610865578063924cca9a1461084757806396ade1f9146107d85780639c3a94cf14610555578063a217fddf14610539578063b54496b01461051c578063b81d90fc1461020a578063cd8cd4ad146101ed578063d547741f146101ac578063d97ef2b3146101715763ef7994651461013257600080fd5b3461016c57602036600319011261016c576001600160a01b03610153611109565b1660005260066020526020604060002054604051908152f35b600080fd5b3461016c57600036600319011261016c5760206040517f9c6721068556a3c372f1c2ef739a54f29e29d287d6ef1e7b26a65200f38e6fb08152f35b3461016c57604036600319011261016c576101eb6004356101cb61111f565b908060005260006020526101e6600160406000200154611226565b6112ca565b005b3461016c57600036600319011261016c576020604051611c208152f35b3461016c57606036600319011261016c57610223611109565b60249081359067ffffffffffffffff9060443582811161016c5761024b903690600401611135565b92909160018060a01b03918282169586156104c857801515806104bc575b1561046b5742019485421161045657604051916020958684019475020baba3437b934bd329039b2b9b9b4b7b71035b2bc960551b86526001600160601b03199060601b1660368501527f20666f7220546574687261205461702d746f2d547261646520756e74696c2000604a8501528760698501526069845260a084019184831090831117610441576103479461033e94610338936040525190207f19457468657265756d205369676e6564204d6573736167653a0a333200000000600052601c52603c600020923691611393565b906113da565b909291926114a6565b81339116036103e157907fbe3b303cdddf6e290620263440af91da6a4d135c2a3ceb1673323b777cea93209160026040516103818161133f565b8681528381018681526040820193600185523360005260078652604060002089600052865260406000209251166001600160601b0360a01b835416178255516001820155019051151560ff801983541691161790556040519283523392a3005b60405162461bcd60e51b8152600481018390526033818701527f546170546f54726164654578656375746f723a20496e76616c696420617574686044820152726f72697a6174696f6e207369676e617475726560681b6064820152608490fd5b89634e487b7160e01b60005260416004526000fd5b87634e487b7160e01b60005260116004526000fd5b60405162461bcd60e51b8152602060048201528089018990527f546170546f54726164654578656375746f723a20496e76616c696420647572616044820152633a34b7b760e11b6064820152608490fd5b50611c20811115610269565b60405162461bcd60e51b8152602060048201526027818a01527f546170546f54726164654578656375746f723a20496e76616c69642073657373604482015266696f6e206b657960c81b6064820152608490fd5b3461016c57600036600319011261016c57602060405161012c8152f35b3461016c57600036600319011261016c57602060405160008152f35b3461016c5760031960c03682011261016c5761056f611109565b67ffffffffffffffff9060243582811161016c57610591903690600401611135565b939061059b611163565b9160a43594851161016c57608090853603011261016c576105ba611726565b6105c2611172565b6105ce8460040161177c565b600254604051631a14f6d760e21b81529060209082906001600160a01b03168180610605886064356084358e8b8e600488016115c6565b03915afa801561077e57610621916000916107b9575b506115ff565b600480546040516323b872dd60e01b81526001600160a01b038681169382019390935290821660248201526064803560448301529091602091839182906000907f0000000000000000000000000000000000000000000000000000000000000000165af1801561077e5761069d9160009161078a575b5061165f565b602460018060a01b03600354169401356020604051809663c286db6960e01b8252816000816106db878d8c8c608435928d60643593600489016116b7565b03925af194851561077e57600095610747575b5060209585926107387fe38902822f38ae04aa550fdb2ad227e4eb26d897ee03aebfd856262b5a5e0b1393604051938493339960018060a01b0316986084359260643592876116f5565b0390a460018055604051908152f35b909194506020813d602011610776575b8161076460209383611371565b8101031261016c5751939060206106ee565b3d9150610757565b6040513d6000823e3d90fd5b6107ac915060203d6020116107b2575b6107a48183611371565b81019061158d565b87610697565b503d61079a565b6107d2915060203d6020116107b2576107a48183611371565b8761061b565b3461016c57604036600319011261016c5760606107f3611109565b6107fb61111f565b60018060a01b03809216600052600760205281604060002091166000526020526040600020908154169060ff600260018301549201541690604051928352602083015215156040820152f35b3461016c57600036600319011261016c576020600554604051908152f35b3461016c57604036600319011261016c5761087e61111f565b600435600052600060205260406000209060018060a01b0316600052602052602060ff604060002054166040519015158152f35b3461016c5760208060031936011261016c576108cc611109565b90336000526007815260406000209160018060a01b03169182600052815260ff60026040600020015416156109465733600052600781526040600020908260005252600260406000200160ff198154169055337f744157ccffbd293a2e8644928cd7d23d650f869b88f72d7bfea8041b76ca6bec600080a3005b6084906040519062461bcd60e51b82526004820152602a60248201527f546170546f54726164654578656375746f723a2053657373696f6e206b6579206044820152696e6f742061637469766560b01b6064820152fd5b3461016c57604036600319011261016c5760206109c96109bb611109565b6109c361111f565b9061152b565b6040519015158152f35b3461016c57600036600319011261016c576003546040516001600160a01b039091168152602090f35b3461016c57602036600319011261016c57600435610a186111ec565b60648111610a2557600555005b606460405162461bcd60e51b815260206004820152602060248201527f546170546f54726164654578656375746f723a2046656520746f6f20686967686044820152fd5b3461016c57602036600319011261016c57610a82611109565b610a8a6111ec565b6001600160a01b03168015610ab1576001600160601b0360a01b6002541617600255600080f35b60405162461bcd60e51b815260206004820152602360248201527f546170546f54726164654578656375746f723a20496e76616c6964206164647260448201526265737360e81b6064820152608490fd5b3461016c57600036600319011261016c576002546040516001600160a01b039091168152602090f35b3461016c57600036600319011261016c576040517f00000000000000000000000000000000000000000000000000000000000000006001600160a01b03168152602090f35b3461016c57600036600319011261016c576004546040516001600160a01b039091168152602090f35b3461016c57604036600319011261016c57610bb261111f565b336001600160a01b03821603610bce576101eb906004356112ca565b60405163334bd91960e11b8152600490fd5b3461016c57600036600319011261016c5760206040517ffc8737ab85eb45125971625a9ebdb75cc78e01d5c1fa80c4c6e5203f47bc4fab8152f35b3461016c57604036600319011261016c576101eb600435610c3a61111f565b90806000526000602052610c55600160406000200154611226565b61124c565b3461016c57602036600319011261016c5760043560005260006020526020600160406000200154604051908152f35b3461016c5760031960e03682011261016c57610ca3611109565b67ffffffffffffffff919060243583811161016c57610cc6903690600401611135565b610cce611163565b938560a4351161016c5760809060a4353603011261016c5760c43594851161016c57610dd3610338610d07610ddc973690600401611135565b9190610d11611726565b610d19611172565b60018060a01b0387166000526006602052604060002054604051906001600160601b03198960601b1660208301528688603484013789151560f81b603488840101526064356035888401015260843560558884010152607587830101523060601b60958783010152610d9860a982888101036089810184520182611371565b602081519101207f19457468657265756d205369676e6564204d6573736167653a0a333200000000600052601c52603c600020923691611393565b909691966114a6565b6001600160a01b038581169084161480156110a6575b1561104e576001600160a01b038316600090815260066020526040902080546000198114611004576001019055610e2d60a43560040161177c565b600254604051631a14f6d760e21b81529060209082906001600160a01b03168180610e648a6064356084358a8c8e600488016115c6565b03915afa801561077e57610e7f916000916107b957506115ff565b600480546040516323b872dd60e01b81526001600160a01b038681169382019390935290821660248201526064803560448301529091602091839182906000907f0000000000000000000000000000000000000000000000000000000000000000165af1801561077e57610efa9160009161078a575061165f565b60018060a01b0360035416936020604051809663c286db6960e01b825281600081610f3a602460a43501358a8c8a8c6084359360643593600489016116b7565b03925af194851561077e5760009561101a575b506001600160a01b0384166000908152600660205260409020546000198101929083116110045760405192835260209686937fe38902822f38ae04aa550fdb2ad227e4eb26d897ee03aebfd856262b5a5e0b13936107389133906001600160a01b038a16907f03a8e3abe17734f998ec7aacc8db66f8ab07e8096a306018130db6d465f0da74908d90a36040516001600160a01b0393841698909316969293849360a43560240135926084359260643592876116f5565b634e487b7160e01b600052601160045260246000fd5b9094506020813d602011611046575b8161103660209383611371565b8101031261016c57519386610f4d565b3d9150611029565b60405162461bcd60e51b815260206004820152602a60248201527f546170546f54726164654578656375746f723a20496e76616c69642075736572604482015269207369676e617475726560b01b6064820152608490fd5b506110b1858461152b565b610df2565b3461016c57602036600319011261016c576004359063ffffffff60e01b821680920361016c57602091637965db0b60e01b81149081156110f8575b5015158152f35b6301ffc9a760e01b149050836110f1565b600435906001600160a01b038216820361016c57565b602435906001600160a01b038216820361016c57565b9181601f8401121561016c5782359167ffffffffffffffff831161016c576020838186019501011161016c57565b60443590811515820361016c57565b3360009081527f0363fc6b1c9d3a5e0ab0c2ddc08deb0f30108829db06e84f370d2858ffe78c4660205260409020547ffc8737ab85eb45125971625a9ebdb75cc78e01d5c1fa80c4c6e5203f47bc4fab9060ff16156111ce5750565b6044906040519063e2517d3f60e01b82523360048301526024820152fd5b3360009081527fad3228b676f7d3cd4284a5443f17f1962b36e491b30a40b2405849e597ba5fb5602052604081205460ff16156111ce5750565b80600052600060205260406000203360005260205260ff60406000205416156111ce5750565b9060009180835282602052604083209160018060a01b03169182845260205260ff604084205416156000146112c557808352826020526040832082845260205260408320600160ff198254161790557f2f8788117e7eff1d82e926ec794901d17c78024a50270940304540a733656f0d339380a4600190565b505090565b9060009180835282602052604083209160018060a01b03169182845260205260ff6040842054166000146112c55780835282602052604083208284526020526040832060ff1981541690557ff6391f5c32d9c69d2a47ea670b442974b53935d1edc7fd64eb21e047a839171b339380a4600190565b6060810190811067ffffffffffffffff82111761135b57604052565b634e487b7160e01b600052604160045260246000fd5b90601f8019910116810190811067ffffffffffffffff82111761135b57604052565b92919267ffffffffffffffff821161135b57604051916113bd601f8201601f191660200184611371565b82948184528183011161016c578281602093846000960137010152565b815191906041830361140b5761140492506020820151906060604084015193015160001a90611416565b9192909190565b505060009160029190565b91907f7fffffffffffffffffffffffffffffff5d576e7357a4501ddfe92f46681b20a0841161149a57926020929160ff608095604051948552168484015260408301526060820152600092839182805260015afa1561148e5780516001600160a01b0381161561148557918190565b50809160019190565b604051903d90823e3d90fd5b50505060009160039190565b600481101561151557806114b8575050565b600181036114d25760405163f645eedf60e01b8152600490fd5b600281036114f35760405163fce698f760e01b815260048101839052602490fd5b6003146114fd5750565b602490604051906335e2f38360e21b82526004820152fd5b634e487b7160e01b600052602160045260246000fd5b60409160018060a01b03809216600052600760205281836000209116600052602052816000209082519061155e8261133f565b825416815260ff60026001840154938460208501520154161515928391015281611586575090565b9050421090565b9081602091031261016c5751801515810361016c5790565b908060209392818452848401376000828201840152601f01601f1916010190565b94916080949796936115ed9260018060a01b0316875260a0602088015260a08701916115a5565b95604085015260608401521515910152565b1561160657565b60405162461bcd60e51b815260206004820152602b60248201527f546170546f54726164654578656375746f723a2054726164652076616c69646160448201526a1d1a5bdb8819985a5b195960aa1b6064820152608490fd5b1561166657565b60405162461bcd60e51b815260206004820152602360248201527f546170546f54726164654578656375746f723a205472616e73666572206661696044820152621b195960ea1b6064820152608490fd5b93979695929160a095926116df92600180891b0316865260c0602087015260c08601916115a5565b9615156040840152606083015260808201520152565b9296959491608094916117109160a0865260a08601916115a5565b9615156020840152604083015260608201520152565b600260015414611737576002600155565b604051633ee5aeb560e01b8152600490fd5b903590601e198136030182121561016c570180359067ffffffffffffffff821161016c5760200191813603831361016c57565b6040808201359161012c83018084116110045742116118be57818161182361033e6117a98360ff96611749565b976117da6060875180938c60209d8e84019788378201908d808b0135908301528a8201520388810184520182611371565b519020926000937f19457468657265756d205369676e6564204d6573736167653a0a3332000000008552601c5261033861181c603c8620926060810190611749565b3691611393565b7f9c6721068556a3c372f1c2ef739a54f29e29d287d6ef1e7b26a65200f38e6fb082528186528282206001600160a01b039091168252855220541615611867575050565b60849250519062461bcd60e51b82526004820152602b60248201527f546170546f54726164654578656375746f723a20496e76616c6964207072696360448201526a65207369676e617475726560a81b6064820152fd5b815162461bcd60e51b815260206004820152602160248201527f546170546f54726164654578656375746f723a20507269636520746f6f206f6c6044820152601960fa1b6064820152608490fdfea26469706673582212202be00d0388b4b8fb23ca3db4d5b3bb1b13f3b97c4fc27c96ba454342258b7a9e64736f6c634300081400332f8788117e7eff1d82e926ec794901d17c78024a50270940304540a733656f0d","linkReferences":{}},"methodIdentifiers":{"BACKEND_SIGNER_ROLE()":"d97ef2b3","DEFAULT_ADMIN_ROLE()":"a217fddf","KEEPER_ROLE()":"364bc15a","MAX_SESSION_DURATION()":"cd8cd4ad","PRICE_VALIDITY_WINDOW()":"b54496b0","authorizeSessionKey(address,uint256,bytes)":"b81d90fc","executeTapToTrade(address,string,bool,uint256,uint256,(string,uint256,uint256,bytes),bytes)":"1e6c63fe","executeTapToTradeByKeeper(address,string,bool,uint256,uint256,(string,uint256,uint256,bytes))":"9c3a94cf","getRoleAdmin(bytes32)":"248a9ca3","grantRole(bytes32,address)":"2f2ff15d","hasRole(bytes32,address)":"91d14854","isSessionKeyValid(address,address)":"81e9c8d1","metaNonces(address)":"ef799465","positionManager()":"791b98bc","renounceRole(bytes32,address)":"36568abe","revokeRole(bytes32,address)":"d547741f","revokeSessionKey(address)":"84f4fc6a","riskManager()":"47842663","sessionKeys(address,address)":"96ade1f9","supportsInterface(bytes4)":"01ffc9a7","tradingFeeBps()":"924cca9a","treasuryManager()":"3cea70d9","updateFees(uint256)":"78dacee1","updateRiskManager(address)":"51d9f3ec","usdc()":"3e413bee"},"id":55}